:10000000F0C000000AC1000008C1000006C10000E5
:1000100004C1000002C1000000C10000FEC00000D9
:10002000FCC00000FAC00000F8C000000C942008DA
:10003000F4C00000F2C00000F0C00000EEC00000FC
:10004000ECC00000EAC00000E8C00000E6C000000C
:10005000E4C00000E2C00000E0C0000047C10000B2
:10006000DCC00000DAC00000D8C00000D6C000002C
:10007000D4C000001A0330003000300030003000DF
:10008000300030003000300030003000310000001F
:100090001E03500072006F00200043006F006E00CE
:1000A000740072006F006C006C006500720000004C
:1000B00026034E0069006E00740065006E00640047
:1000C0006F00200043006F002E002C0020004C0029
:1000D000740064002E0000000403090409022900D2
:1000E000010100A0FA090400000203000000092138
:1000F0001101000122CB000705020340000807059B
:10010000810340000812010002000000207E050962
:1001100020100201020301050115000904A1018557
:1001200030050105091901290A15002501750195F8
:100130000A5500650081020509190B290E150025D5
:10014000017501950481027501950281030B01007F
:100150000100A1000B300001000B310001000B3247
:100160000001000B35000100150027FFFF0000759E
:100170001095048102C00B390001001500250735D8
:1001800000463B0165147504950181020509190FAC
:100190002912150025017501950481027508953411
:1001A00081030600FF852109017508953F810385BC
:1001B0008109027508953F8103850109037508953A
:1001C0003F9183851009047508953F9183858009C7
:1001D000057508953F9183858209067508953F91BD
:1001E00083C011241FBECFEFD2E0DEBFCDBF11E030
:1001F000A0E0B1E0E4EAF4E102C005900D92AE386F
:10020000B107D9F722E0AEE8B1E001C01D92A534F4
:10021000B207E1F732D20C94500AF2CE8091C900B5
:100220008F778093C90080910001811126C0809151
:10023000CE019091CF01883E934060F08BB18063F6
:100240008F7D8BB98091D4018F7E8093D40182ED14
:1002500091E005C08BB18F7C8BB98DED91E09093CF
:10026000D1018093D0018091CE019091CF01089669
:100270009093CF018093CE010EC08BB180638BB978
:100280008091D4018F7E8093D40182ED91E0909390
:10029000D1018093D0018091C90080688093C9000A
:1002A000089582E290E09093CD008093CC00E8EC3A
:1002B000F0E080818260808386E08093CA001092A3
:1002C000CB0088E18093C900539A5A9A089584B765
:1002D000877F84BF0FB6F894A895809160008861ED
:1002E00080936000109260000FBE08951F920F92DD
:1002F0000FB60F9211242F933F934F935F936F93F9
:100300007F938F939F93EF93FF938091C80087FF14
:10031000FCCF4091CE0080910001811109C1E09194
:10032000F1018091F001E83098F491E09E0F9093F4
:10033000F101F0E0E851FE4F4083842798E027E088
:10034000880F08F482279A95D9F78093F0010EC19F
:10035000841799F04F3F49F481E080930001809128
:10036000C80085FFFCCF8FEF05C08091C80085FFD6
:10037000FCCF82E98093CE00D6C08091C80085FF73
:10038000FCCF81E98093CE008093DD012091E801CC
:100390003091E9013227232732279091EA01809199
:1003A000DE0120FB80F9B901E3E076956795EA95D7
:1003B000E1F760FB81F9B9017695679560FB82F9F9
:1003C000B901769567957695679560FB83F9B901D4
:1003D000E5E076956795EA95E1F78F7C60FB86F915
:1003E000B901660F672F661F770B719560FB87F960
:1003F0008093DE018091DF0130FB80F931FB5527CE
:1004000050F950FB81F933FB552750F950FB82F925
:1004100032FB552750F950FB83F934FB552750F92F
:1004200050FB84F9B901672F77276295669567704D
:1004300060FB85F98F7B80688093DF018DEF890FEA
:1004400051E0833008F050E08091E00150FB80F9EA
:100450008093E00181E0923018F0973009F080E05D
:100460005091E00180FB51F95093E00151E08FEF92
:10047000890F833008F050E08091E00150FB82F951
:100480008093E001955051E0933008F050E0809166
:10049000E00150FB83F9B90194E0769567959A9550
:1004A000E1F78F7C60FB86F956E0369527955A95E3
:1004B000E1F720FB87F98093E0018091EB0190E068
:1004C00064E0880F991F6A95E1F788602091EC013C
:1004D0008093E10188279F70892F80688093E201D3
:1004E0002093E3018091ED0190E074E0880F991F63
:1004F0007A95E1F788602091EE018093E4018827E6
:100500009F70892F80688093E5012093E601109207
:10051000E7018DED91E09093D1018093D00110928D
:10052000CF011092CE011092F1011092F0011EC085
:10053000813079F4433349F482E080930001809163
:10054000C80085FFFCCF8CEC0FC083E080930001D6
:100550000DC0823059F44C3CC1F7109200018091DB
:10056000C80085FFFCCF83E38093CE00809100011B
:10057000833061F44F3F51F481E08093000180911A
:10058000C80085FFFCCF8FEF8093CE00FF91EF91E5
:100590009F918F917F916F915F914F913F912F919B
:1005A0000F900FBE0F901F90189591DE90E080E89D
:1005B0000FB6F89480936100909361000FBE71DED6
:1005C0008AB180638AB98BB180638BB92AC50895DB
:1005D0000895CF9342E361EC81E063D4C82F42E3F6
:1005E00060EC82E05ED4882311F0C11104C08BB1AD
:1005F00080638BB9FFCFCF91089580913E028A30FE
:1006000051F480913D02813231F48091E800877F7E
:100610008093E8007BC4089580913C02843061F5AA
:1006200082E08093E9008091E80082FF1EC080E4B0
:10063000EEE8F1E0DF011D928A95E9F760E070E0F5
:100640008091E80085FF09C08091F1006034710558
:10065000B8F781936F5F7F4FF3CF8091E8008B777E
:100660008093E8008EE891E0FCD181E08093E9007E
:100670008091E80080FDEAC208953BE0EDEDF1E0F5
:10068000DF01832F1D928A95E9F781E98093DD01CF
:100690008091DF0180688093DF0198E09093E20110
:1006A00080E88093E3019093E5018093E6012CE0DC
:1006B0002093E701E2EDF1E0DF011D923A95E9F7C1
:1006C00031E93093D2013091D40130683093D401B4
:1006D0009093D7018093D8019093DA018093DB0146
:1006E0002093DC01F093D101E093D0018AE0E8EEA1
:1006F000F1E0DF011D928A95E9F760ED71E08EE08F
:1007000091E0A6D152DF789487DFA0D6FDCF292FC4
:10071000332723303105E1F058F42130310599F0C9
:100720002230310599F589E290E02CED30E032C0BD
:100730002132310531F12232310541F58BEC90E067
:1007400027E131E027C082E190E025E031E022C0DE
:1007500099278130910561F040F08230910559F080
:100760000397A1F4E4E7F0E008C0E8EDF0E005C08D
:10077000E0EBF0E002C0E0E9F0E0849190E09F015E
:1007800009C089E090E02EEE30E004C080E090E007
:1007900020E030E0FA01318320830895CF92DF9288
:1007A000EF92FF920F931F93CF93DF93CDB7DEB7F6
:1007B00069970FB6F894DEBF0FBECDBF7C018B01E9
:1007C0006A01AB016FEF70E0C60163D680E8E816FE
:1007D00080E6F80609F45DC0A8F4FDE3EF16F0E644
:1007E000FF0609F46AC080E5E81680E6F806E9F03D
:1007F000E0E2EE16E0E6FE0609F08FC088E1E3E1F4
:10080000F1E07AC0F0E1EF16F0E8FF0609F465C008
:1008100088E2E81680E8F80609F46BC0E8E9EE160D
:10082000E0E6FE0609F079C038C00330110508F48F
:1008300074C083E0EAE0F1E0D60101900D928A9560
:10084000E1F70630110508F468C083E0E7E0F1E065
:10085000D601139601900D928A95E1F709301105A2
:1008600008F45BC083E0E4E0F1E0D6011696019065
:100870000D928A95E1F70C30110508F44EC0D601AF
:10088000199683E0E1E0F1E001900D928A95E1F79D
:1008900044C088E1EBE2F1E02FC082E1E3E4F1E063
:1008A000DE01119601900D928A95E1F7A8010331BE
:1008B000110570F142E150E02BC089E1E5E5F1E07E
:1008C000DE01119601900D928A95E1F7A8010A3197
:1008D0001105F0F049E150E01BC007311105E8F0C7
:1008E00082EBF601868B07311105B9F081EA878B1F
:1008F00014C088E1EEE6F1E0DE01119601900D9260
:100900008A95E1F7A8010931110510F048E150E09E
:10091000BE016F5F7F4FC601B3D569960FB6F894DD
:10092000DEBF0FBECDBFDF91CF911F910F91FF9022
:10093000EF90DF90CF900895CF93DF939091F601E1
:10094000911115C0FA0190E4A8EFB1E0ED01199200
:100950009A95E9F78093F8016093F901422F50E0EE
:10096000BF018AEF91E08CD581E08093F601DF91A1
:10097000CF910895CF93DF93CDB7DEB728970FB609
:10098000F894DEBF0FBECDBF8091F601811113C078
:10099000198283E08A8386E0EDE0F1E0DE011396C0
:1009A00001900D928A95E1F728E0AE014F5F5F4F0D
:1009B00061E081E8C1DF28960FB6F894DEBF0FBE74
:1009C000CDBFDF91CF9108952091F601211109C08B
:1009D0006091F7016D5F6093F7012BE0AC0180E35C
:1009E000ABCF0895CF93DF939091F60191112DC075
:1009F000EA0190E4E8EFF1E0DF011D929A95E9F752
:100A000091E29093F8019091F7019D5F9093F70127
:100A10009093F901E091F401F091F5010190F081DA
:100A2000E02D9BE0AAEFB1E001900D929A95E1F7DD
:100A30008093050260930602422F50E0BE0187E0DA
:100A400092E01ED581E08093F601DF91CF91089569
:100A50009093F3018093F2017093F5016093F40198
:100A600089CF5F926F927F928F929F92AF92BF9247
:100A7000CF92DF92EF92FF920F931F93CF93DF936A
:100A8000CDB7DEB72C970FB6F894DEBF0FBECDBF43
:100A9000FC01CDB6DEB680818038C9F46181643056
:100AA00030F4623070F4613061F464DFB4C06430FB
:100AB00041F4E091F401F091F5018081918184DFAE
:100AC000AAC020E040E050E081E836DFA4C08130D9
:100AD00009F0A1C0613108F49EC06285603109F45B
:100AE00056C008F5633009F491C0A0F4613099F163
:100AF000623009F08BC00DB71EB783E0898398E49C
:100B00009A838B836C83ADE0B1E0FE013B96CE010E
:100B1000059627C0643009F079C020E040E050E03D
:100B200064E083E877C0683309F470C008F06EC0F1
:100B3000613209F06BC088E0E6E8F1E0DE01119671
:100B400001900D928A95E1F728E0AE014F5F5F4F6B
:100B500061E280EA5FC021E043E050E061E081E8CB
:100B600059C02D9122938E179F07D9F783E08B8769
:100B700082E08C872CE0AE014F5F5F4F62E082E83D
:100B800031DF0FB6F8941EBF0FBE0DBF44C05384B3
:100B900064847784E72CF12C8DB79EB78E199F095A
:100BA0000FB6F8949EBF0FBE8DBFEDB7FEB731965E
:100BB0004F01AF01B701852D962DF0DD5701F5E00E
:100BC000AF0EB11C8DB79EB78A199B090FB6F8946A
:100BD0009EBF0FBE8DBF0DB71EB70F5F1F4FEDB786
:100BE000FEB75182F80161821282138274820696E6
:100BF000A701B40145D42A2DA80160E180E9F2DE05
:100C00000FB6F894DEBE0FBECDBE05C020E040E0BA
:100C100050E080E8E7DE0FB6F894DEBE0FBECDBE32
:100C20002C960FB6F894DEBF0FBECDBFDF91CF91EB
:100C30001F910F91FF90EF90DF90CF90BF90AF90FA
:100C40009F908F907F906F905F900895E091F20158
:100C5000F091F30109958091F601811107C0E091AF
:100C6000F401F091F50180819181AEDE81E0809305
:100C7000E9008091E80080FFFCCF40E050E060E4B4
:100C800070E088EF91E00AD08111F7CF8091E80001
:100C90008E778093E8001092F6010895CF92DF924C
:100CA000EF92FF920F931F93CF93DF93EC018B0191
:100CB0007A014BD1811133C0E114F10439F0F7010D
:100CC00080819181081B190BC80FD91FC12CD12C11
:100CD0000115110519F18091E80085FD16C080917C
:100CE000E8008E778093E800B1D3E114F10449F075
:100CF000F70180819181C80ED91ED182C08285E022
:100D00000EC023D1882321F30AC089918093F1007A
:100D100001501109FFEFCF1ADF0ADACF80E0DF912F
:100D2000CF911F910F91FF90EF90DF90CF9008959A
:100D300020914302309144022617370748F061158D
:100D4000710539F42091E8002E772093E80001C066
:100D5000B901FC0120E06115710561F180913C024F
:100D60008823D9F18530D9F18091E80083FD39C01D
:100D70008091E80082FD2BC08091E80080FFEBCFDE
:100D80008091F20090E06115710551F0803291057B
:100D900038F421912093F100615071090196F3CF4D
:100DA00021E0809709F020E08091E8008E77809321
:100DB000E800D1CF2111D2CF0AC080913C02882314
:100DC00061F0853061F08091E80083FD0AC0809178
:100DD000E80082FFF2CF80E0089582E0089583E08A
:100DE000089581E00895209143023091440226172E
:100DF000370748F06115710539F42091E8002E7726
:100E00002093E80001C0B901FC0120E061157105E3
:100E100079F180913C02882309F43DC0853009F4C2
:100E20003CC08091E80083FD3AC08091E80082FDDB
:100E30002CC08091E80080FFE9CF8091F20090E023
:100E40006115710559F08032910540F42491209389
:100E5000F1003196615071090196F2CF21E080973F
:100E600009F020E08091E8008E778093E800CECFF3
:100E70002111CFCF0AC080913C02882361F08530D8
:100E800061F08091E80083FD0AC08091E80082FF54
:100E9000F2CF80E0089582E0089583E0089581E034
:100EA0000895982F953068F59093E900981739F0D8
:100EB0007091EC002091ED005091F00003C0242FC0
:100EC000762F50E021FD02C09F5FECCF3091EB0008
:100ED0003E7F3093EB003091ED003D7F3093ED008D
:100EE0003091EB0031603093EB007093EC00209375
:100EF000ED005093F0002091EE0027FDE5CF80E05B
:100F000008958F708093E90081E0089580913D02FB
:100F100087FF11C08091E80082FD05C080913C02EE
:100F20008111F8CF11C08091E8008B770BC08091C0
:100F30003C02882349F08091E80080FFF8CF80913F
:100F4000E8008E778093E80008952091E4003091C6
:100F5000E50095E64091EC00842F817040FF23C0AE
:100F60008091E80080FD1DC080913C02882399F0AB
:100F7000853099F08091EB0085FD11C04091E4002F
:100F80005091E5002417350729F3915011F09A018B
:100F9000E1CF84E0089582E0089583E0089581E040
:100FA000089580E008954091E80042FFDDCF089564
:100FB00041D043D08091D8008F778093D800809122
:100FC000D80080688093D8008091D8008F7D80936E
:100FD000D80084E089BD86E089BD09B400FEFDCF5C
:100FE00010923C021092380210923A02109239028A
:100FF00042E260E080E055DF8091E1008E7F8093E7
:10100000E1008091E20081608093E2008091E20043
:1010100088608093E2008091E0008E7F8093E00002
:101020000895E3E6F0E080818E7F808381E0809305
:101030003B02BECF1092E20008951092E1000895A5
:101040001F920F920FB60F9211242F933F934F933D
:101050005F936F937F938F939F93AF93BF93EF9320
:10106000FF938091E10082FF0AC08091E20082FF3D
:1010700006C08091E1008B7F8093E100E6D18091F2
:10108000E10080FF17C08091E20080FF13C08091D3
:10109000E2008E7F8093E2008091E2008061809385
:1010A000E2008091D80080628093D80019BC109231
:1010B0003C028EDA8091E10084FF2FC08091E20033
:1010C00084FF2BC084E089BD86E089BD09B400FEA1
:1010D000FDCF8091D8008F7D8093D8008091E10072
:1010E0008F7E8093E1008091E2008F7E8093E2000A
:1010F0008091E20081608093E20080913802882331
:1011000011F084E007C08091E30087FD02C081E018
:1011100001C083E080933C025ADA8091E10083FFB2
:1011200022C08091E20083FF1EC08091E100877F92
:101130008093E10082E080933C021092380280911B
:10114000E1008E7F8093E1008091E2008E7F8093AA
:10115000E2008091E20080618093E20042E260E080
:1011600080E09FDE72D1FF91EF91BF91AF919F918F
:101170008F917F916F915F914F913F912F910F9040
:101180000FBE0F901F9018951F93CF93DF93CDB78D
:10119000DEB7AA970FB6F894DEBF0FBECDBFEDE362
:1011A000F2E08091F100819322E0E534F207C9F783
:1011B00024DA8091E80083FF30C180913D02909154
:1011C0003E02953009F483C030F49130A9F168F003
:1011D000933091F122C1983009F4EFC0993009F4AD
:1011E000FBC0963009F019C194C0803821F08238D4
:1011F00009F013C108C08091390290913A029923F5
:1012000089F082600FC0809141028F70853008F0B4
:1012100004C18093E9008091EB0085FB882780F969
:101220001092E9009091E800977F9093E8008093F6
:10123000F1001092F100CCC0282F2D7F09F0EDC0F5
:10124000882319F0823061F0E8C080913F0281303C
:1012500009F0E3C0933009F080E080933A022EC099
:1012600080913F0281112AC0809141028F702FEF3F
:10127000280F243008F0D1C08093E9002091EB00C2
:1012800020FF1CC0933021F48091EB00806214C0D9
:101290009091EB0090619093EB0021E030E0A90188
:1012A00002C0440F551F8A95E2F74093EA0010925E
:1012B000EA008091EB0088608093EB001092E900D7
:1012C0008091E800877F8093E80020DEA6C081112E
:1012D000A4C010913F021F778091E3008078812B9A
:1012E0008093E3008091E800877F8093E8000EDE22
:1012F0008091E80080FFFCCF8091E30080688093BC
:10130000E300111102C082E001C083E080933C023F
:1013100084C08058823008F080C080913F02909154
:1013200040028C3D53E0950771F583E08A838AE2A1
:1013300089834FB7F894DE01139620E03EE051E236
:10134000E32FF0E050935700E49120FF03C0E295B3
:10135000EF703F5FEF708E2F90E0EA3010F0C7968D
:1013600001C0C0968D939D932F5F243149F74FBFE5
:101370008091E800877F8093E8006AE270E0CE0108
:101380000196D6DC14C06091410270914202AE0118
:101390004F5F5F4FBCD9BC01892B09F43EC09091CF
:1013A000E800977F9093E80089819A811CDD809105
:1013B000E8008B778093E80030C0803871F5809129
:1013C000E800877F8093E800809138028093F100E5
:1013D0008091E8008E7777CF81111FC080913F0206
:1013E0009091400299270297C4F48091E800877F8A
:1013F0008093E80080913F028093380287DD8091DE
:101400003802811106C08091E30087FD02C081E0AF
:1014100001C084E080933C02DCD88091E80083FF27
:101420000AC08091E800877F8093E8008091EB00FC
:1014300080628093EB00AA960FB6F894DEBF0FBED1
:10144000CDBFDF91CF911F9108950895CF938091E3
:101450003C02882399F0C091E900CF709091EC0094
:10146000892F817090FD80E8C82B1092E90080914F
:10147000E80083FD89DECF70C093E900CF91089525
:10148000FB01DC0102C001900D9241505040D8F7A1
:101490000895DC0101C06D9341505040E0F708957C
:0414A000F894FFCFEE
:1014A40003AAAAAAAAAAAADDDDDD0AB9E679054437
:1014B400C6B565E6FF3A003900004000400040F739
:1014C400FFFCFF0000E73BE73BE73B50FD0000C6A5
:1014D4000F0F30619630F3D41454411554C7799CDE
:1014E4003336630F30619630F3D41454411554C726
:1014F400799C333663BA156211B87F29065BFFE71E
:101504007E0E36569E8560FF323232FFFFFFBEFFED
:101514003E00F001004000400040FEFFFEFF0800D6
:0E152400E73BE73BE73B0100FF00030005014A
:00000001FF
